{
  "contractName": "UBXToken",
  "abi": [
    {
      "constant": true,
      "inputs": [],
      "name": "totalSupply",
      "outputs": [
        {
          "name": "",
          "type": "uint256"
        }
      ],
      "payable": false,
      "stateMutability": "view",
      "type": "function"
    },
    {
      "inputs": [],
      "payable": false,
      "stateMutability": "nonpayable",
      "type": "constructor"
    }
  ],
  "bytecode": "0x608060405234801561001057600080fd5b506303f94daf600081905550609e8061002a6000396000f300608060405260043610603f576000357c0100000000000000000000000000000000000000000000000000000000900463ffffffff16806318160ddd146044575b600080fd5b348015604f57600080fd5b506056606c565b6040518082815260200191505060405180910390f35b600054815600a165627a7a72305820b2301703c3db95e1450cf7a1eb722552088a191be3edd4a87cd8198c727726a90029",
  "source": "pragma solidity ^0.4.2;\ncontract UBXToken{\n    // Constructor\n    //set number of total tokens\n    // read total number of tokens\n    uint256 public totalSupply;\n    \n    function UBXToken () public {\n        totalSupply = 66669999;\n\n    }\n}",
  "sourcePath": "/home/nethos/Subject/Learning project/token_sale/contracts/UBXToken.sol",
  "compiler": {
    "name": "solc",
    "version": "0.4.24+commit.e67f0147.Emscripten.clang"
  },
  "schemaVersion": "2.0.1",
  "updatedAt": "2018-09-18T14:40:28.931Z"
}