{
  "contractName": "UBXToken",
  "abi": [
    {
      "constant": true,
      "inputs": [],
      "name": "totalSupply",
      "outputs": [
        {
          "name": "",
          "type": "uint256"
        }
      ],
      "payable": false,
      "stateMutability": "view",
      "type": "function"
    },
    {
      "constant": true,
      "inputs": [
        {
          "name": "",
          "type": "address"
        }
      ],
      "name": "balaceOf",
      "outputs": [
        {
          "name": "",
          "type": "uint256"
        }
      ],
      "payable": false,
      "stateMutability": "view",
      "type": "function"
    },
    {
      "inputs": [
        {
          "name": "_initialSupply",
          "type": "uint256"
        }
      ],
      "payable": false,
      "stateMutability": "nonpayable",
      "type": "constructor"
    }
  ],
  "bytecode": "0x608060405234801561001057600080fd5b506040516020806101a28339810180604052810190808051906020019092919050505080600160003373ffffffffffffffffffffffffffffffffffffffff1673ffffffffffffffffffffffffffffffffffffffff1681526020019081526020016000208190555080600081905550506101148061008e6000396000f3006080604052600436106049576000357c0100000000000000000000000000000000000000000000000000000000900463ffffffff16806318160ddd14604e578063b5c43e04146076575b600080fd5b348015605957600080fd5b50606060ca565b6040518082815260200191505060405180910390f35b348015608157600080fd5b5060b4600480360381019080803573ffffffffffffffffffffffffffffffffffffffff16906020019092919050505060d0565b6040518082815260200191505060405180910390f35b60005481565b600160205280600052604060002060009150905054815600a165627a7a7230582095da8bb28c6db00abc535ca05d1b7fba318e1628381a3bf9bfd0d9a7be8ae1860029",
  "source": "pragma solidity ^0.4.24;\ncontract UBXToken{\n    // Constructor\n    //set number of total tokens\n    // read total number of tokens\n    uint256 public totalSupply;\n    mapping(address=> uint256) public balaceOf;\n    //Name\n    //symbol\n\n    //function UBXToken(uint256 _initialSupply) public {\n      constructor(uint256 _initialSupply) public{\n        balaceOf[msg.sender]=_initialSupply;\n        totalSupply = _initialSupply;\n        //alocate initial supply to admin account\n    }\n}\n",
  "sourcePath": "/home/nethos/Subject/Learning project/token_sale/contracts/UBXToken.sol",
  "compiler": {
    "name": "solc",
    "version": "0.4.24+commit.e67f0147.Emscripten.clang"
  },
  "schemaVersion": "2.0.1",
  "updatedAt": "2018-09-22T03:02:45.133Z"
}